:020000040800F2
:10000000C01D0020D5000008559A0008BD7A0008E0
:1000100000000000000000000000000000000000E0
:1000200000000000000000000000000013C90008EC
:1000300000000000000000006DA9000801EC0008AD
:10004000E7000008E700000863B20008E7000008C6
:10005000E700000829380008393800084938000846
:10006000E7000008E7000008E7000008392A000858
:10007000E7000008E7000008E7000008E7000008C4
:10008000F1EC0008E7000008E700000800000000AD
:10009000E9EC0008E7000008E7000008E7000008B6
:1000A000E7000008E7000008E7000008EDF6000898
:1000B000E7000008FDB1000800000000E7000008AC
:1000C0000348854600F0F8FE004800475D2401081B
:1000D000C01D00200448804704480047FEE7FEE7B3
:1000E000FEE7FEE7FEE7FEE795EC0008C10000082A
:1000F00030B50B46014600202022012409E00D46C0
:10010000D5409D4205D31D469540491B2546954047
:1001100040191546521E002DF1DC30BD70B500248B
:100120002546002801DA01244042002901DA012590
:100130004942FFF7DDFFAC4200D04042002C00D026
:10014000494270BDF0B51FB40646002082B0054696
:100150004024019100901BE0019922460F46304651
:1001600000F0F4FC049A059B801A994110D31046C4
:100170001946224600F0DAFC361A8F4101972246D2
:1001800001200021009F00F0D1FC38184D41009063
:100190002046641E0028DFDC019B00982946324679
:1001A00007B0F0BDF0B51FB486B0002000900190FC
:1001B00002900698069980B204900798090C0204F0
:1001C0000014114307900027089D099806913E46A8
:1001D0003C4603900398A9B20204000C03900498D3
:1001E0002D0C154348430021224600F09FFCC719FF
:1001F000714110340E46402CECDB3846029A00F078
:1002000095FC009A019B8018009059410298019139
:10021000103002904028CCDB00980BB0F0BD0346B4
:100220000B439B0703D009E008C9121F08C0042A2A
:10023000FAD203E00B780370401C491C521EF9D21D
:100240007047D2B201E00270401C491EFBD27047D9
:100250000022F6E710B513460A4604461946FFF792
:10026000F0FF204610BD421C0178401C0029FBD144
:10027000801A704710B5002200E0521C835C8C5C31
:10028000A34201D1002BF8D1D8B2E1B2401A10BD7F
:1002900030B505460020034600E05B1C934205D2C2
:1002A000EC5CC85C201A01D1002CF6D130BD0321D2
:1002B000001D401E037812021A43491EF9D510464C
:1002C000704700000FB400B58DB009900B9010A9D5
:1002D00000200091C0430A9000200C900648069030
:1002E000064807906A4609A80F9900F069FC0DB00E
:1002F00008BC04B018470000E10B0008010C00081E
:10030000FFB50027FF4383B000205C6801909E6822
:100310001D46A9697F1C049888470090296A884770
:100320000028F6D10098401C0CD0032040028443E2
:10033000002E19DD600614D500982B2809D02D2831
:100340000FD103E00020C04307B0F0BD01208002C0
:100350000443A9697F1C04988847761E0090002EEC
:1003600002DD0098302803D00598002825D035E01C
:10037000012040020443A969761E7F1C0498884727
:100380000090002E03DD782805D0582803D005986A
:10039000002810D022E00598002801D010281DD197
:1003A000012040028443A969761E7F1C0498884777
:1003B0000090102002E0082000E00A2005900DE0E7
:1003C000012149020C43059A0199761E51430818F0
:1003D0000190A9697F1C049888470090002E05DDD4
:1003E0000599009800F0D6FB0028E9DAE96904983D
:1003F0008847A00502D40120C043A5E7E00722D129
:10040000600611D56005019800D5404229680A1D93
:100410002A600968220501D5087014E0220701D579
:10042000088010E008600EE02868011D296000685F
:10043000210502D50199017005E02107019901D537
:10044000018000E0016038467EE770B506460FF097
:1004500053FA046805460A220021304600F0E2FB08
:100460002C6070BDF8B502464A40D40F42004B00E4
:1004700052085B089A4202D20246084611464A00D8
:1004800023D0C30D4A00DDB2120EAD1A202D35DA8D
:1004900049020126490AF6058A19002C00D0524269
:1004A00020214F1B1146B9402A411018C20D9A4213
:1004B00021D0002C17D0012D08DCDA05801AD20FCC
:1004C0008019D207DBB200F0EDFBF8BDDA05801A27
:1004D000012340001B06C01880185A428018CA0F1A
:1004E0001043490007E04908C2071143DA05801AA2
:1004F00080194008801800F0CDFBF8BD6100012292
:10050000511A001BF7E70122D2075140AAE7012246
:10051000D2075040A6E7024670B54A40D30FDB072A
:1005200040002DD04A002AD0010E140E0002120203
:100530000919400A520A8418E50104465443000A86
:10054000120A2E045043A4194219200CC543AA18BC
:10055000120C0125AD03521C521912047F392404D8
:1005600000D0521C104301D44000491EC2B20C06F8
:10057000C0092018401C4008802A02D003E0002057
:1005800070BD40084000002900DA0020184370BD0B
:1005900070B502464A40D50F40004A00ED074008BA
:1005A0005208002814D0002A12D0C40DD30D4102E5
:1005B0000120C0055202490A520AE41A0918121809
:1005C0007D34914201D3641C00E04900002C01DA23
:1005D000002070BD0023914201D3891A03434008D3
:1005E00049000028F7D100290AD0914202D1012107
:1005F000C90705E0914201D2012101E00121C9436F
:10060000E005C018401900F045FB70BDF0B5074685
:100610000846584087B0C00F049048000E46590065
:1006200040084908BC1A884105D2384631461E4662
:1006300017460B4602465800400810434CD0300D78
:10064000039040055900400D490D0590401A029055
:10065000402872DA18030121000B090508430190B4
:1006600004980092002805D0019952420020884148
:1006700000920190029840210A1A0199009800F016
:1006800055FA05460C466B4607CB00F070FAC019C8
:100690007141039A0E0D0023D71756401A467A402F
:1006A000164344D0049A002A2DD0029A012A039AB4
:1006B00015DC1205C01A914101263605001C714156
:1006C000D20F059ED2070093019202962A46234636
:1006D00000F02EFB07B0F0BD38463146FAE71605AC
:1006E000224A0F46B218C01AB74101210905001C61
:1006F0004F4100187F41114618187941E20F10430D
:100700006D19644113E0E2076D0815436408C207E0
:100710001443039A01261205C01A91413605001CA4
:100720007141CE07400830434908C01851412A465C
:10073000234600F0F0FACDE7FFE7049801224000DD
:10074000C117121A00238B4104983146C417381A76
:10075000A141EEE730B40124E407634030BC55E723
:1007600030B40124E407614030BC4FE70000E0FFF3
:10077000F0B51FB488B00B99099800244840099936
:10078000C00F490049080991C0070B990090490022
:1007900049080B9109990898A64608431CD00B9963
:1007A0000A98084318D0099801244000420D4800D7
:1007B000410D099824050003000B204309900B9874
:1007C0000003000B20430B9050181C4940180022D6
:1007D00001901446104605E0002001460DB0F0BD22
:1007E000032801DA034600E003239C46C11A0AAE3F
:1007F0000AE05F0008ADED5B4F00F75B7D4300272B
:10080000AA187C41491C5B1E6145F2DD410004AB26
:100810005A522104120C0A43240C401C0828DFDB26
:10082000019802900099704601910090059B049AEE
:100830000799069800F07CFAD0E700000DFCFFFF56
:10084000F0B50C465C4085B0E40FE40703944C001F
:10085000002664085900944649080246029622433D
:1008600021D062460A431ED06200570D4A000E0393
:100870002303550D012402462C492405781B1B0B2C
:10088000360B401823432643614600901C46501AFD
:10089000B44103D30098401C009002E092180098E5
:1008A0005B41002803DA0020014605B0F0BD0020BE
:1008B000012109050746864611E064461D46141BC2
:1008C000B54106D36546521BB341744607430C43FA
:1008D000A646CD0740084908284392185B410546C3
:1008E0000D43EAD11046184313D0604619465040D4
:1008F0007140084306D06046101AB34106D2012267
:10090000002306E000220123DB0702E00122D2439C
:100910005310009874460105381C6141029C039DE8
:100920000019694100F0F7F9BFE70000FD0300007E
:1009300070B54B005B0803430BD04B005C0D0026E9
:1009400033466542B341D417AD1AA34102DB002000
:10095000014670BD12053018514170BDC217C10F5C
:10096000504010B54018CA079623002100F09AF9AC
:1009700010BD10B500229623114600F093F910BD6A
:100980000EB5C217C10F5040CA0740180021054BD1
:100990000293019200910A460B4600F0C9F903B098
:1009A00000BD0000330400000EB50549029100218E
:1009B00000910A460B46019100F0BAF903B000BD60
:1009C00033040000C20F410040020123400ADB054E
:1009D000D207090EC0187F2901DA00207047962936
:1009E00003DC9623591AC84001E096398840002A52
:1009F000F4D040427047410040020122400AD20533
:100A0000090E80187F2901DA00207047962903DC3F
:100A10009622511AC84070479639884070470000A6
:100A200070B5CD0F4A0009030123090B1B051943BB
:100A30000B4BED070024520D9A4201DA002070BDE5
:100A4000074B34339A4203DC9A1A00F07FF802E035
:100A50000449511888402C43F1D0404270BD000039
:100A6000FF030000CDFBFFFF4A0009030123090B30
:100A70001B051943094B10B5520D9A4201DA0020AB
:100A800010BD064B34339A4203DC9A1A00F05EF82C
:100A900010BD03495118884010BD0000FF0300003D
:100AA000CDFBFFFFC20FD207400040080BD0C10DA5
:100AB0000723DB01C91840020905400A1143C20897
:100AC00040071143704700200146704710B50029C8
:100AD00004DB0124E40740428C412146002B04DB67
:100AE0001C460123DB075242A341994200D19042A8
:100AF00010BD0000CB0FDB07490010B549080246C6
:100B00000A4307D00A0D07240903E401090B121B4D
:100B1000002A01DC002010BDC900440F0C43C100B5
:100B2000E018D205801800F0B5F810BD10B5202AE5
:100B300004DB0146203A9140002010BD9140202363
:100B40009C1A0346E3401943904010BD10B5202A7B
:100B500004DB0846203AD040002110BD0B46D340AC
:100B6000D0402024A21A91400843194610BD10B568
:100B7000202A06DBCB170846203A1041C1170B4349
:100B800006E00B461341D0402024A21A91400843AE
:100B9000194610BD3A2800D23038202302469A4325
:100BA000412A01D310463738884201D30020C04380
:100BB00070470000026813785118016018467047AA
:100BC00010B5D160044951610449116200211161DD
:100BD000114600F091F910BDB50B0008E50E0008B4
:100BE0004268002A08D001680B78491C002B03D00A
:100BF000521E06C0184670470121C160881E70470A
:100C00004268002A0BD0C3680168002B07D18368B3
:100C10008B4204D0491E521C06C0002070470020A1
:100C2000C0437047F7B5009C0F4600262578641C2A
:100C3000002D05D000F052F90068405DC007F5D1E5
:100C40002B2D02D02D2D18D0641E39462046029A35
:100C500000F0EEFA002F04D03968A14201D10099CA
:100C600039607105022400290BDA4042002803DDB7
:100C70000EF042FE0460A007FEBD01208002064384
:100C8000E3E70028F8DA0EF037FE04600048FEBD06
:100C9000FFFFFF7F002904DA401C490001D1400812
:100CA0004000704770B40024050C05D110240004E6
:100CB00002D1002921D01124050E01D100020834EF
:100CC000050F01D10001241D850F01D18000A41C56
:100CD000002801DB4000641C002908D020252E1BC1
:100CE0000D46F540A14000D00121294308430106EB
:100CF0001B1B000ADB1D02D5002070BC7047DB0502
:100D0000181880180029F8DA401C4900F5D170BC89
:100D100040084000704710B5002B08DA0024401C42
:100D2000614192185B411A4301D14008400010BD57
:100D3000F0B51FB482B005460C0003D008460EF093
:100D40009FFD02E00EF09CFD2030024600902146FF
:100D50002846FFF7EBFE049B059A04460F4618430E
:100D60001143084314D0184610431BD0009840216B
:100D70000A1A18460599FFF7E9FE05460E46009A3D
:100D800005990498FFF7D2FE084305D0012004E03E
:100D90002046394607B0F0BD0020C11705430E4379
:100DA0002C43374300990E986305401A7905E40AED
:100DB00000220C43FD0A0A3002D500200146E9E773
:100DC0000105101969410C9C0D9D00196941FFF73F
:100DD000A2FFDFE7F8B50546480040080C46284367
:100DE00004D06000184A400D904201DD2846F8BD4D
:100DF00015493539884210DC88420BDB290D200368
:100E000008432903014305D0E00F1049C0074118EA
:100E10000020F8BD00200146F8BD161A4020821BB4
:100E200028462146FFF782FE0746009128462146C4
:100E30003246FFF78BFE3A46009BFFF76CFF3246C7
:100E4000FFF774FEF8BD0000330400000000F03F1F
:100E50004A0009030123090B1B0519430A4B10B56E
:100E6000520D9A4202DA0020014610BD064B34337F
:100E70009A4203DC9A1AFFF769FE10BD034BD218A1
:100E8000FFF754FE10BD0000FF030000CDFBFFFF85
:100E900010B5002904DB0124E40740428C412146BF
:100EA000002B04DB1C460123DB075242A3418B428B
:100EB00000D1824210BD0000064C0125064E05E01F
:100EC000E36807CC2B430C3C98471034B442F7D36B
:100ED000FFF7FAF8E45A0108045B0108004870477C
:100EE0003848010810B50446FFF7F8FF0068005DB8
:100EF000C007C00F10BD0000F3B58DB000200A90F0
:100F000001200B90002608460C300C4609906269BF
:100F1000012109989047051E2ED0252D2DD0216A3C
:100F20008847002818D06269012109989047216AF2
:100F300088470028F7D1411E62690998904700E070
:100F4000761CA1690D988847216A88470028F7D147
:100F5000E1690D988847DAE7A1690D988847074647
:100F6000A84201D1761CD2E7E1690D9888477F1C21
:100F700002D10A98002877D049E1002762693D46EE
:100F80003946099890472A280CD1626901210998AD
:100F90009047012506E00A214F433F18303FEBD42C
:100FA00010200543626901210998904701463039B4
:100FB0000A2903D29B498F42DEDCECE7E90600D424
:100FC000994F6C280AD04C2810D0682824D06A2861
:100FD0002ED074280CD07A280AD00DE06269012145
:100FE000099890476C2823D004211CE02020054359
:100FF0006269012109989047A760656065284FD014
:1010000026DC582839D01ADC452849D012DC25289E
:1010100034D04128B0D143E062690121099890475A
:10102000682802D008210D43E6E70120C002DEE770
:101030000220DCE7462833D047282CD130E05B285B
:1010400070D061282CD063286CD0642823D161E053
:101050006F284FD009DC662822D0672820D0692865
:1010600026D06E2817D12EE0CDE070284DD0732801
:101070006FD075284ED078280DD154E0A1690D9815
:1010800088470546252800D16CE7E1690D98884717
:101090006D1C00D16DE7BAE00A224CE00A2252E052
:1010A000012023466A46C0430D99C046C046A3E0CE
:1010B0002846402108436060A807234601D5002246
:1010C00039E000223FE0E80700D020E72068011D5A
:1010D00021600068290501D5067018E7290701D5A8
:1010E000068014E7A90703D5F117066041600EE7F3
:1010F00006600CE72846402108436060A8072346A5
:1011000001D5082217E008221DE04849284608407A
:10111000606016E02846402108436060A807234627
:10112000BCD5B9E715E02846402108436060A80710
:1011300007D5234610220120C0430D99C046C04662
:101140005AE0234610220120C0430D99FFF7D8F83A
:1011500052E000210C910B460091632802D05B28DD
:1011600007D043E0E80601D40120A06001200090F0
:101170003CE062690121099890475E2805D1012071
:101180000C9001466269099890472169002906D1AF
:101190000B4601AA8F00491CD3510829FADB00280D
:1011A00035D0216900290ED1C117C90E09184A117D
:1011B000930001AA9A1849094901411A01201368AC
:1011C00088400343136062690121099890475D28B4
:1011D000E5D10C98002808D0002001AB81005A58B6
:1011E000401CD2435A500828F8DB01AB01202246AC
:1011F000C0430D99C046C04600280ADA401C06D1FB
:101200000B98002803D00020C0430FB0F0BD0A980F
:10121000FBE7E90702D10A99491C0A913618002018
:101220000B9074E6CCCCCC0CFFFFFF7FF1F7FFFFF7
:10123000F7B582B0029C00272078641C1546019700
:10124000302802D0002D15D015E020780127641C2D
:10125000782804D0582802D0002D09D00BE0002DAA
:1012600001D0102D07D1002710252078641C02E042
:10127000082500E00A250026009610E000990127C5
:1012800069430818020C294680B2714300908E18F9
:101290003804864201D3012001902078641C29463D
:1012A000FFF778FC0028E9DA0398002805D0002F22
:1012B00001D0641E00E0029C04600198002806D062
:1012C0000EF01AFB02210160C81E05B0F0BD0099A6
:1012D00030040843F9E770B58C180578401C6B079B
:1012E0005B0F01D10378401C2A1106D10278401C03
:1012F00003E006780E70401C491C5B1EF9D12B07D9
:1013000005D40023521E0DD40B70491CFAE7037854
:10131000401CCB1A921C03E01D780D70491C5B1C0D
:10132000521EF9D5A142D8D3002070BD30B5054674
:10133000002400F01DF801214800285A491C041916
:10134000C9B20529F8D3A003000C30BD38B5044656
:10135000064805490068FEF7CBFE604300E0401EEA
:1013600000900028FBD138BD40420F007C000020D7
:10137000F0B500220125002105239F1A0BE04C0047
:10138000A446035B26187488A34203D965464453D8
:1013900073800025491C8F42F1DC002D02D1521CC4
:1013A000052AE7DBF0BD0000F8B504460068816857
:1013B0008907890F012902D10168C90722D18168F3
:1013C000114A10261140012500290ED181682943B8
:1013D00081600120FFF7BAFF03F0F0FB07460CE045
:1013E00003F0ECFBC01B0A2807D9A06D3043A065B1
:1013F000E06D2843E0650120F8BD20680068C04327
:10140000C007EDD10020F8BD17000080F0B589B00D
:101410000C46074610220021684611F03DFA694645
:10142000224608460EF0DDFE684600788726010653
:10143000684600290FDA00214318425C5B785200AD
:10144000DB091A434254491C0F29F5DBC17B0246D4
:10145000490071400DE000214318425C5B78520066
:10146000DB091A434254491C0F29F5DBC17B0246B4
:101470004900D173E21DF9325169102912D0017867
:1014800009061BD500214518435C6D785B00ED090A
:101490002B434354491C0F29F5DBC17B034649000C
:1014A000714019E000216218FF3201325378455C27
:1014B000491C6B4053701029F5DB26E000214518CC
:1014C000435C6D785B00ED092B434354491C0F29A5
:1014D000F5DBC17B03464900D973E11D55698023C3
:1014E000FA316B54002500E05D5453695B1C536175
:1014F000102BF9D300216218FF3201325378455C7A
:10150000491C6B4053701029F5DB0021621810460E
:10151000FF32E0300132437C5278491C534043741F
:101520001029F3DB21461022F13104A811F09CF9B7
:101530002246394604A80EF054FE102200216846C7
:1015400011F0AAF909B0F0BD10B50446102200212F
:10155000F13011F0A1F9FF20002115300151F022E6
:10156000204611F099F910BD0B4610B50246102126
:1015700018460EF061FE10BDF0B50446FF308BB08A
:101580000F4601300890E11D4069FA310091103991
:1015900015460791002843D010210E1AAE4200D301
:1015A00016460099B2B24018394611F05DF9089814
:1015B000089940698019486110283AD3B54238D05B
:1015C000002162181046FF32E0300132437C52782D
:1015D000491C534043741029F3DB079922460846FF
:1015E0000EF0FFFDBF19AD1B1AE000202118E031FD
:1015F0004A7C3B5C401C5A404A741028F6DB10229F
:1016000002A8079911F030F902A9224608460EF007
:10161000E8FD102202A9079811F026F9103D1037B5
:10162000102DE2D8AAB23946009811F01DF9089899
:1016300045610BB0F0BD0000F7B523498022097C5D
:10164000214B511ACDB2D97B1B7C8026F31A0A4656
:10165000DEB2871E491C0124C9B2761E3B000EF083
:101660003EF909060C060C120C06062B3000164B30
:10167000AA4224D2154CA05403E0134BB24215DB0E
:101680001DE0D9730DE0104EAD1EAA4217DA0F4BC4
:10169000985401985854491CC8B202991954401CD6
:1016A000F073002408480121817308E0074CA0541E
:1016B00001986054491CE4E7034BAA42F6D3204644
:1016C000FEBD0220FEBD0000D80100201213002044
:1016D00010B50E480C4901600D4941600121C160FF
:1016E000002101618161C1610162F0218160FE21FF
:1016F000416103F091FA002801D002F05BF900216A
:10170000024803F061FA10BD00540040600500205B
:10171000563EA11000B587B014216846FEF798FD2B
:101720000948C26A02210A43C262C06A08400590A1
:101730001020009003200190002002906946034889
:1017400003F06EF907B000BD001002400004005025
:1017500010B586B014216846FEF77AFD0D48C26ABE
:1017600002210A43C262C06A0B4C08400590102057
:101770000090012001900020029003200390694610
:10178000204603F04DF900221021204603F00FFA05
:1017900006B010BD0010024000040050F0B585B046
:1017A00011F0CCFB8448FF260178F5360027750040
:1017B000824C01290CD003290AD0814B02297AD00E
:1017C000052976D00446072974D00929FCD0EBE01E
:1017D0007CA0006801907CA00068029000F09EFD53
:1017E0000DF03EFB039006E003980DF03FFBB04286
:1017F00001D3A77008E0012301AA80217348009556
:1018000003F0F0FA0028EFD1012301AA80216F48EC
:10181000009503F0E7FA002804D10120A0706CA025
:101820000DF024FCA0780028D1D1684803F0BCFC5E
:1018300000F096FD0DF014FB039006E003980DF008
:1018400015FBB04201D3A77008E0022302AA882149
:101850006548009503F0C6FA0028EFD1022302AADA
:1018600088216148009503F0BDFA002804D10220C8
:10187000A0705EA00DF0FAFBA0780028A7D15A480E
:1018800003F092FC06F046F910F0E2F8054606F087
:1018900017F96800000E04D00320A07059A00DF0C5
:1018A000E5FBA07800287FD15DA00DF0DFFB7BE099
:1018B00001E04CE06BE00397002220211F46184610
:1018C00003F075F9FFF704FF12F050F9012603A8A1
:1018D000009033460022C42101960295574803F038
:1018E000B9FB12F043F95649884202D2667055A0FE
:1018F00021E0524803F058FC02F04AFA02F086FA5E
:1019000001210520C902000703F04CF9002806D187
:10191000022060700DF0F4F953A00DF0A7FB02F067
:1019200019FA02F055FA6078002806D110F0DCFAB6
:10193000012808D059A00DF099FB0122202138463A
:1019400003F035F930E0032060705FA0F3E7002278
:1019500020211C46184603F02AF90DF055FF0DF022
:1019600017FF02F0F5FA304602F073FF02F0F0FACA
:101970000DF02CFF0DF0EEFE01222021204603F099
:1019800016F95AA00DF072FB0028FAD10CE05D4860
:10199000007802F023F95C48007802F05FF92078C3
:1019A000092801D1FFF7B6FE5848007802F0D6F8B2
:1019B00002F0B2F905B0F0BD4B0100208400002018
:1019C00000040050E7000000F32D00007804002020
:1019D0000A0D5573652053656E736F72206973200D
:1019E00053544832780D0A00C40400200A0D557380
:1019F000652053656E736F722069732053544833AA
:101A0000780D0A000A0D5573652053656E736F7269
:101A1000206973204248313735300D0A000000003C
:101A20000A0D4E6F20493243206465766963652054
:101A300064657465637465640D0A000060050020C8
:101A40000F2700000A0D5573652053656E736F7282
:101A5000206973204C494441525F4C6974655F763C
:101A60003348500D0A0000000A0D55736520536578
:101A70006E736F7220697320756C747261736F6E10
:101A800069632064697374616E6365206D65617359
:101A90007572656D656E740D0A0000000A0D4E6F5B
:101AA0002064697374616E6365206D65617375721E
:101AB000656D656E74206465766963652064657420
:101AC00065637465640D0A000A0D557365205365DE
:101AD0006E736F722069732054462D736572696549
:101AE000732073656E736F720D0A00000A0D5573D3
:101AF000652053656E736F722069732048583731C3
:101B0000310D0A004D0100204E0100204C01002043
:101B1000F0B58BB00D46044605F072FCF74E012D72
:101B200027D1F7A00DF0A2FA0028FAD1F54F388896
:101B3000FEF73AFF0022F44BFEF782FE02460B4608
:101B4000F2A00DF093FA0028F1D13078F34F062877
:101B50001ED0072823D0092845D0F14F0121890341
:101B6000384603F01FF80146EEA00DF07FFA00287A
:101B7000F4D106F0BBFAE148007803286CD00120CC
:101B800000F06EFFEC4EED4F6060012D45D058E047
:101B9000EBA039680DF06AFA0028F9D1E9E7E04FC7
:101BA00001218903384602F0FDFF0146DDA00DF05A
:101BB0005DFA0028F4D10121C903384602F0F2FF92
:101BC0000146E4A00DF052FA0028F4D105273F07A2
:101BD0001021384602F0E6FF0146E3A00DF046FA78
:101BE0000028F5D1C5E7D6A039680DF03FFA0028E6
:101BF000F9D1E14FE1A039680DF038FA0028F9D1A8
:101C000005273F071021384602F0CCFF0146D6A039
:101C10000DF02CFA0028F5D1ABE7B0420CD8B84251
:101C20000ADC6068FEF73EFF02460B46D8A00DF0C6
:101C30001DFA0028F5D104E0DBA00DF017FA00280A
:101C4000FAD1AE480078012806D0032804D0042831
:101C500062D0092860D093E0D9488178002906D065
:101C6000012908D0022924D0032941D088E0D54891
:101C7000E061206284E0D44803F0AEFA0AF03EFD51
:101C800006460AF0D1FCE6612062012D78D1206A77
:101C9000FEF708FF06460F46E069FEF703FF02461F
:101CA0000B46CAA0019700960DF0E0F90028EED18E
:101CB00066E0CF4803F090FA11F07CFDCD48012D8D
:101CC0000068E061CC480068206259D1206AFEF7C4
:101CD000E9FE06460F46E069FEF7E4FE02460B46C3
:101CE000C6A0019700960DF0C1F90028EED147E09B
:101CF0000121017005F00EFF0FF0AAFEFEF77BFE3A
:101D0000A08405F0DDFE012D3AD1A18CC4A00DF018
:101D1000ADF90028F9D133E0022000F0A1FEA06067
:101D2000012D13D1B0420CD8B8420ADCA068FEF7EE
:101D3000B9FE02460B46BEA00DF098F90028F5D179
:101D400004E0C1A00DF092F90028FAD1032000F0C0
:101D500087FEE060012D13D1B0420CD8B8420ADCF6
:101D6000E068FEF79FFE02460B46BDA00DF07EF92F
:101D70000028F5D104E0C0A00DF078F90028FAD1D0
:101D8000C34F388800281BD000222021644802F06D
:101D90000EFF00260EE0642002F05BFD632130465A
:101DA000FEF7A6F9002903D1002E01D006F09EF916
:101DB000761CB6B264213888FEF79AF9B042EAD8A8
:101DC0004E4802AE017803297ED008297CD009292B
:101DD0003BD0FFF7BDFC0027012005F051FA790048
:101DE00070520A2002F035FD7F1CFFB2062FF3D39C
:101DF000012210214A4802F0DAFE02A8FFF796FA03
:101E00006F4F4049B88009884843A249FEF786F9D8
:101E1000FEF7A4FD2061012D0DD12069FEF742FEE1
:101E20000022394BFEF70CFD02460B469AA00DF03E
:101E30001DF90028F1D131480078022806D0032886
:101E400042D0082840D0052856D0F9E178780128FA
:101E500007D002281AD003283DD09448E08420857A
:101E6000EEE1934803F0B8F906F020FF06F0D6FE45
:101E7000E084012DE9D1E08C0A21FEF739F9014611
:101E80008CA00DF0F3F80028F5D1D9E101F080FF26
:101E900001F0BCFF102003F04BFA0DF005FCE084CC
:101EA000102003F03BFA01F055FF01F091FF012DE6
:101EB000CBD1874EE08CFEF777FD00223346FEF74C
:101EC000BFFC02460B4600E019E182A00DF0CEF8FF
:101ED0000028EFD1B4E1854811F0EAFA8348012DDA
:101EE0000188E18480882085AFD1E08C0A21FEF74B
:101EF000FFF80146228DFBE08FE100004B0100203E
:101F00000D0A0000C200002000408F404261743A78
:101F1000252E336620560D0A00000000D400002054
:101F200000040050504231345F7374617475733A29
:101F300025640D0A0000000000005CC20000FA42A7
:101F4000504231345F636F756E74313A25750D0AF6
:101F500000000000504231355F7374617475733A4C
:101F600025640D0A000000005041345F73746174F1
:101F700075733A25640D0A00D800002050423135AF
:101F80005F636F756E74323A25750D0A00000000AC
:101F9000445331384232305F74656D70313A252ECA
:101FA00031660D0A00000000445331384232305F80
:101FB00074656D70313A6E756C6C0D0A000000002E
:101FC0008400002000CCCC457804002053485432D3
:101FD000785F74656D703A252E31662C5348543203
:101FE000785F68756D3A252E31660D0A0000000095
:101FF000C4040020380000203C0000205348543323
:10200000785F74656D703A252E31662C53485433D1
:10201000785F68756D3A252E31660D0A0000000064
:102020004248313735305F6C756D3A25640D0A00D2
:10203000445331384232305F74656D70323A252E28
:1020400031660D0A00000000445331384232305FDF
:1020500074656D70323A6E756C6C0D0A000000008C
:10206000445331384232305F74656D70333A252EF7
:1020700031660D0A00000000445331384232305FAF
:1020800074656D70333A6E756C6C0D0A000000005B
:102090002C010020FF0F00004144435F5041303AC3
:1020A000252E336620560D0A00000000FFFF0000B9
:1020B000600500206C696461725F6C6974655F64BF
:1020C000697374616E63653A256420636D0D0A005F
:1020D00000002440554C545F64697374616E6365FD
:1020E0003A252E316620636D0D0A0000FC050020A4
:1020F00065A00CF0BBFF002800D0F6E6A0E0FFF7DB
:1021000027FB0027012005F0BBF8790070520A2058
:1021100002F09FFB7F1CFFB2062FF3D302A8FFF74C
:1021200005F9624988806249098848436149FDF799
:10213000F5FFFEF713FC2061322002F08AFB002736
:102140005D4805F09DF87900891988810A2002F020
:1021500080FB7F1CFFB2062FF2D305A8FFF7E6F83D
:102160005249C8805249098848435249FDF7D6FF71
:10217000FEF7F4FB6061322002F06BFB00274F4852
:1021800005F07EF87900891908830A2002F061FBC6
:102190007F1CFFB2062FF2D308A8FFF7C7F8434908
:1021A00008814349098848434249FDF7B7FFFEF7D4
:1021B000D5FBA06101221021414802F0F8FC012D5D
:1021C0003ED1404E2069FEF76DFC00223346FEF7FB
:1021D00037FB02460B463C480CF048FF0028F1D183
:1021E0006069FEF75FFC00223346FEF729FB0246DA
:1021F0000B4636A00CF03AFF0028F1D1A069FEF79B
:1022000051FC00223346FEF71BFB02460B4634A06E
:102210000CF02CFF0028F1D112E00DF0F5FA0DF0D2
:10222000B7FA01F09DFEE0620DF0D0FA0DF092FADF
:10223000012D05D12FA0E16A0CF018FF0028F9D17B
:1022400001F06AFD052002F004FB012105200903CD
:10225000000702F0A7FC207001F040FD012D05D120
:10226000217829A00CF002FF0028F9D101222021B9
:10227000134802F09CFC012D03D1FF20F53002F041
:10228000E8FA0BB0F0BD000054465F6469737461F6
:102290006E63653A256420636D2C54465F737472D7
:1022A000656E6774683A25640D0A0000840000209A
:1022B000C2000020FF0F0000020000041000001008
:1022C0000004005000408F40982000084144435FC4
:1022D0005041313A252E336620560D0A0000000089
:1022E0004144435F5041343A252E336620560D0A4F
:1022F0000000000048583731315F576569676874DE
:102300003A256420670D0A00504131325F737461D1
:102310007475733A25640D0A0000000010B50E486C
:102320000C4901600D4941600121C160002101613A
:102330008161C1610162F0218160FE21416102F091
:102340006BFC002801D001F035FB0021024802F0AF
:102350003BFC10BD0054004078040020563EA11004
:1023600010B50E480C4901600D4941600121C16062
:10237000002101618161C1610162F0218160FE2162
:10238000416102F049FC002801D001F013FB00215B
:10239000024802F019FC10BD00540040C4040020A3
:1023A000563EA1101FB514A003C80191009014A1BE
:1023B00003C90391029011F0C3FA11F097FA0122B8
:1023C0001149124804F0A6FD7D20C00002F041FA38
:1023D0000F4C0522234669460C4804F03DFE32208E
:1023E00002F037FA2346062202A9084804F034FE18
:1023F000322002F02EFA1FBD5A05070066000000C9
:102400005A06030100640000190100200C0A002094
:10241000FFFF000001780448024A4368D1540121BB
:1024200001707047BB0B00203C01002010B5034831
:1024300011F07CFB02490020087010BD1524000833
:102440003C01002010B51248017801290ED100216D
:102450000170104B42689C5C012C08D00D2C09D0F7
:102460000A2C07D07F2A0DD0521C426010BD41605B
:10247000082009E0002AF9D099544160054810F07D
:1024800057FB10BD416006200FF068FD10BD000035
:102490003C010020BB0B00203EB50E4C6946A27AE1
:1024A0000A70A27F8A70C870E06B0CF0DFFC0190AC
:1024B000606C029020462030407869464870A07ECB
:1024C00009F02AFD618D606C4143081A616E401865
:1024D00060663EBDD8010020FFB5044689B00020EB
:1024E00003900890069021891646002915D0019086
:1024F000626904922069002A04D000290FD00A469C
:1025000092B20392002900D00E46E168884215D3AA
:10251000039A61688018081A11E00220E7E7226830
:102520006568135C471CAF4202D3451B6D1C00E07D
:102530003D46525D1202921C9A18E1E70020019973
:10254000751807950C994D43854201D2002102E090
:102550000799FDF7CDFDC8B20199884208D9217FBE
:10256000CA0700D106980690880701D5019800E0B7
:102570000698002E6AD004994919081861688842A3
:1025800064D8002798E0039808186168884200D34F
:10259000401A20612189002911D121680E546168F7
:1025A000401C814200D8401A2268310A11546168E7
:1025B000401C814200D8401A6169891C61616168D0
:1025C0000D1AB54200D33546B5420DD0B54202D200
:1025D000217F002908D0002D6AD0217FCA0730D082
:1025E0002189002913D019E039460A9A71438918C4
:1025F000226810182A46FDF712FE606940196061D2
:1026000007990895002089B2751B039140E0236863
:10261000FF22811E5A542168401E0A5460694019E5
:102620006061002008902189354600292AD1206860
:1026300005702168280A487061690220891C61615F
:1026400020E089071ED52189002902D000200DB085
:10265000F0BD2168821E8D542268290A431ED15480
:1026600039460A9A71438918226810182A46FDF7DC
:10267000D6FD6069401960610895A069751B401C12
:10268000A061D4E70199691889B203910021216101
:10269000002D0DD0089A0A993B4689182268734389
:1026A000101859182A46FDF7BAFD60694019606193
:1026B000A069401C7F1CA0610C982169874200D250
:1026C00061E7019808186168884200D3401A2168C0
:1026D0004018BCE710B5029C01600021C160016197
:1026E00041614260816103810477A00703D5002B1B
:1026F00001D0481E10BD002010BD0000F0B50389B8
:102700000022002B09D0002300240C804469002CF7
:1027100058D00289002A02D00DE00223F4E7C268F3
:1027200004684668A55C571CB74200D3921B521C34
:10273000A25C1202AA1894B20C80027FD50729D09D
:10274000920727D4204A944202D10289002A0AD053
:10275000C468026994421DD90289002A1AD04568CA
:102760002C1B944216D24468C2684569A21AAA1A60
:1027700042610022C2600289002A0AD10268012C4B
:10278000157802D86442641C00E00124125D120234
:10279000AA180A80C5684468EA18A24200D3121B2E
:1027A00006680F8892194669FF18F61B466106D025
:1027B00009886918C918A14200D3091BC160816941
:1027C000491E81611046F0BDFFFF0000F0B503898E
:1027D0000022002B0AD0002700230B804369002B26
:1027E00042D00389C268002B02D00DE00227F3E734
:1027F00005684468531CAE5CA342134600D31B1B00
:102800005B1CEB5C1B02F3189CB20C80037FDD07A2
:1028100023D09B0721D4154B9C4202D10389002B66
:102820000AD0C46803699C4217D90389002B14D0CD
:1028300045682C1B9C4210D200221B041B0C0BD1A0
:1028400043680468012B02D85B425B1C00E0012353
:10285000E35C24781B021B190B80D119426891425A
:1028600000D3891A00680A181046F0BDFFFF000067
:10287000F1B584B0002001906946029008702F4F96
:1028800004997C78002957D001256608E00704D018
:102890000FF0FEFB002807D008E00FF0F9FB00283E
:1028A00021D1002C02D01EE0012C1CD02448710044
:1028B000405A010A6A46002001AB10702E4686403D
:1028C0000E4204D0167898551678761C1670401C67
:1028D000C0B20828F2D31078002819D00FF0D8FB26
:1028E000002804D007E016487100415CE2E7002CA4
:1028F0001BD0012C1BD02646684601780020491EBB
:1029000010F058FB01A9085CF10040180499087008
:10291000641CE4B2072C00D9002468460078002823
:1029200007D07C70002005B0F0BD0126E4E700264A
:10293000E2E778788442A8D10320F4E7C4010020BC
:10294000D0100020FFB5002085B000900546064657
:102950000190002477000698C15B0120A04001424D
:102960002AD028190C2103904843079909580029B7
:1029700022D0079941180820029108560211000739
:102980000117059840B209F0E2FC002814D0029823
:10299000407A010108980818C068002804D00198FE
:1029A000401CC0B2019007E0009A0E990398885429
:1029B0000098401CC0B20090641CE4B2102CCAD332
:1029C0001035761CEDB2F6B2482DC2D30F9901989E
:1029D0000870009809B0F0BD30B587B01421684682
:1029E000FDF736FC032001900020029003204003F5
:1029F000104C0090E06A01210843E062E06A084060
:102A0000059005206946000702F00AF8E06A4008D0
:102A10004000E062606B0125AD052843606301F072
:102A2000C9FC01F0D7FC01F0CDFC606BA8436063EA
:102A300007B030BD0010024010B511F019F810BDFC
:102A400010B5046863608368102B036803D0996035
:102A50000068C26010BD9A600068C16010BD0000CF
:102A6000F1B5002688B035460596089800F070F854
:102A700000280BD0761CF6B26D1CEDB2032D01D2EE
:102A8000032EF2D3089800F071F851E0089800F096
:102A900033FA4420089900F03BFA274801F0D9FEA8
:102AA000089800F029FABE20089900F031FA0024B5
:102AB0006F46089800F0D6F93855641CE4B2092C2A
:102AC000F7D3082168460FF0BAFA6946097A8842B6
:102AD000D2D1684601784078000200B2084308D598
:102AE000C043401CFDF74CFF0022144BFDF740FE95
:102AF00005E0FDF745FF0322D243FDF719FFFDF77F
:102B0000F9FF04460E48844209D10598401CC0B222
:102B100005900228B0D1089800F028F809E008983C
:102B200000F024F80748844202D80748844200DDB8
:102B3000064C09B02046F0BD020300000000B0BF03
:102B40000000AA4200005CC20000FA4233CB4C45B0
:102B500010B50446012803D0022C01D0032C01D16A
:102B600000F090F9204600F0ADF810BD30B500221D
:102B70001949032387B0012813D005240125240710
:102B800002281FD003281BD1C86A2843C862C86A1C
:102B9000284005900815009069460193029220464E
:102BA0000CE0CC6A02200443CC62C96A0193014064
:102BB00005910820009002926946084801F030FF14
:102BC00007B030BDC86A2843C862C86AC007C00FD2
:102BD000059001204002DEE7001002400004005092
:102BE00010B50022194986B0012813D0052301240D
:102BF0001B0702281FD003281BD1C86A2043C862C4
:102C0000C86A20400590081500900192694602921A
:102C100018460CE0CB6A02200343CB62C96A0192DA
:102C2000014005910820009002926946084801F091
:102C3000F7FE06B010BDC86A2043C862C86AC00764
:102C4000C00F059001204002DEE7000000100240A6
:102C50000004005010B501221849022386B0012853
:102C600012D00524240702281ED003281AD1C86ACE
:102C70001043C862C86A1040059008150090694664
:102C80000393019220460BE0C86A1843C862C86AE1
:102C90006946184005900820009003930192084867
:102CA00001F0BEFE06B010BDC86A1043C862C86A13
:102CB000C007C00F059001204002DFE7001002406E
:102CC0000004005070B50024012806D005252D070A
:102CD00002282AD003284ED074E00120FFF780FF9D
:102CE000394D04E0641CE4B2012000F0ABF9082186
:102CF000284601F057FF002802D0C82CF2D35FE02D
:102D0000C82C5DD2002404E0641CE4B2012000F071
:102D100099F90821284601F045FF002802D1F02C3E
:102D2000F2D34DE0F02C4BD24CE00220FFF758FFDD
:102D30000126760204E0641CE4B2012000F082F96E
:102D40003146284601F02EFF002802D0C82CF2D3CD
:102D500036E0C82C34D2002404E0641CE4B2012024
:102D600000F070F93146284601F01CFF0028D9D147
:102D7000F02CF2D324E00320FFF732FF0126B60245
:102D800004E0641CE4B2012000F05CF931462846FE
:102D900001F008FF002802D0C82CF2D310E0C82CA4
:102DA0000ED2002404E0641CE4B2012000F04AF9D1
:102DB0003146284601F0F6FE0028B3D1F02CF2D3BC
:102DC000012070BD002070BD0004005070B50128C6
:102DD00006D005242407022813D003282BD025E091
:102DE0000120FFF737FF1E4C00220821204601F08A
:102DF000DEFE0A2000F026F90120FFF7F1FE08218F
:102E00000EE00220FFF726FF01256D020022294671
:102E1000204601F0CCFE0A2000F014F9022018E050
:102E2000204601F0BFFE012817D000222D2000F01F
:102E300009F9104670BD0320FFF70CFF0125AD0214
:102E400000222946204601F0B2FE0A2000F0FAF8DE
:102E50000320FFF7C5FE2946E2E70122E6E700006E
:102E60000004005070B5002506462C463046FFF79A
:102E7000ADFFA0402843641CE4B2C5B2082CF5D3D2
:102E8000284670BD70B51A4D012814D005242407BA
:102E9000022825D0032822D1FFF7DCFE00220126DC
:102EA000B6023146204601F082FE284600F0CAF8FC
:102EB000012231460DE00120FFF7CCFE0D4C00222F
:102EC0000821204601F073FE284600F0BBF80122DD
:102ED0000821204601F06BFE0F2000F0B3F870BD12
:102EE0000220FFF7B7FE002201267602D9E7000094
:102EF000EE0200000004005010B50446FFF7C2FFC8
:102F00002046FFF7DFFE2146CC2000F001F810BD7F
:102F1000F8B5044601291FD005252D07022949D0FF
:102F2000032946D10320FFF795FE00260127BF02A3
:102F3000E007C00F640800286BD0002239462846FD
:102F400001F035FE082000F07DF8012239462846C0
:102F500001F02DFE3A206AE00120FFF77BFE384E9B
:102F60000025E007C00F640800280ED000220821C9
:102F7000304601F01CFE082000F064F80122082110
:102F8000304601F014FE3A200DE0002208213046C0
:102F900001F00DFE462000F055F8012208213046D0
:102FA00001F005FE022000F04DF86D1CEDB2082D79
:102FB000D7D3F8BD0220FFF74DFE002601277F0280
:102FC000E007C00F640800280ED0002239462846CA
:102FD00001F0EDFD082000F035F8012239462846C1
:102FE00001F0E5FD3A200DE000223946284601F0C7
:102FF000DEFD462000F026F801223946284601F081
:10300000D6FD022000F01EF8761CF6B2082ED7D3AB
:10301000F8BD00223946284601F0C9FD462000F0DF
:1030200011F801223946284601F0C1FD022000F0C6
:1030300009F8761CF6B2082E00D279E7F8BD000038
:103040000004005006E00021491CC9B20429FBD34A
:10305000401E80B20028F6D1704710B504F076FA11
:1030600010BD000070B504460420A0700FF010F8E9
:10307000E07010480688642E11D964213046FDF7AF
:1030800037F805020A213046FDF732F80E460A21CC
:10309000FDF72EF8080105433543A8B207E00A21E1
:1030A0003046FDF725F800020901084380B2208070
:1030B00070BD000050010020F0B5ABB09F4D002462
:1030C00019AE284600F0F8FCA100641C2D1D7050BC
:1030D000112CF6DB00249A4D00940194A91C0820C1
:1030E0001A9B199A0FF071FF1B98E8601F991E98A0
:1030F000019100902946183110201D9B1C9A0FF059
:1031000064FF2399229801910090294628311020CC
:10311000219B209A0FF059FF279901912698009042
:10312000294638311020259B249A0FF04EFF009439
:103130000194294610310820299B289A0FF045FF59
:103140007E4F5C370026384600F0B6FCB20005A979
:10315000761C3F1D8850142EF5DB0220694608724C
:103160000598000E01D0012100E00021684601739E
:1031700002A806F0DDF816216846017205980114D0
:103180006846017302A806F0D3F805986C4E001249
:103190004036307505980127C0B201287ED06C708A
:1031A0006878012800D0002006F0BAFB07206946A5
:1031B00008720698000E00D00120087302A806F0DD
:1031C000B7F806980002000E012868D02C706946F6
:1031D0000C720698000A087302A806F0A9F806986F
:1031E000C0B201287ED034730A246846047207985E
:1031F000039002A806F09CF86846047208990174CE
:1032000002A806F095F8102168460172099803900B
:1032100002A806F08DF81121684601720A98039001
:1032200002A806F085F81221684601720B980390F7
:1032300002A806F07DF81321684601720C980390ED
:1032400002A806F075F80321684601720D980390F4
:1032500002A806F06DF83B490E9808600F98000E22
:1032600000D00120364C3849283C60700F98374A0E
:10327000000C20700F98000A08700F98F07220461A
:103280002030109901601199090C11801199304A70
:10329000090A117011990171129801E048E049E0A2
:1032A0002C49000E087012982B49000C08701298D7
:1032B0002A49000A08702A49129808701398294967
:1032C000000EE0711398000C2072139808800A21F8
:1032D0001498FCF70DFFFDF74CFB23490860159887
:1032E000000C00E028E00006000E00D00120A070D5
:1032F00015981E49000AA072159860721698000C65
:1033000008701B491698088017981A49000E087013
:1033100017981949000C087017981849000A087086
:103320001749179808701749189808802BB0F0BDF6
:103330006F7035E72F704AE7377355E704000808C8
:103340006C010020C40000202A010020BC000020E5
:10335000B1000020260100202701002028010020C4
:10336000290100202C0100205C000020B200002078
:10337000BE000020B6000020B5000020B8000020EC
:10338000B7000020C0000020FEB50220694608708A
:10339000684605F051FF002802D0A9A00BF066FE98
:1033A00068460079162104066846017005F044FF5E
:1033B000002802D0A2A00BF059FE68460421415615
:1033C000A54E142009043056214335460002403DE5
:1033D000084369782C460143283C20799F4A8300A2
:1033E000D150401C207107216846017005F024FF70
:1033F000002802D092A00BF039FE684600792978A7
:1034000000060D04054300276846077005F014FF09
:10341000002802D08AA00BF029FE68460079317B93
:1034200000022843014320798C4D8200A950401CA2
:1034300020710A216846017005F0FEFE002802D0C6
:103440007FA00BF013FE207901998200A950401C47
:103450002071A079012805D00B216846017005F084
:10346000EBFE0BE0A7710A2069460870684605F07C
:10347000E3FE002802D072A00BF0F8FD6846017A46
:1034800020798200A950401C2071102069460870E4
:10349000684605F0D1FE002802D069A00BF0E6FDD9
:1034A000207901998200A950401C207111206946A1
:1034B0000870684605F0C0FE002802D060A00BF03E
:1034C000D5FD207901998200A950401C207112205D
:1034D00069460870684605F0AFFE002802D058A083
:1034E0000BF0C4FD207901998200A950401C207185
:1034F000132069460870684605F09EFE002802D039
:103500004FA00BF0B3FD207901998200A950401C17
:103510002071032069460870684605F08DFE00287A
:1035200002D047A00BF0A2FD207901998200A9509A
:10353000401CC0B24A4982000968A9506278F17AF9
:103540001206484B114322781B7812041B02401CC0
:103550001A43C0B211438200A950401CC0B23E4978
:10356000830048390A68EA503F4A404B12881B786A
:1035700012041B020979401C1A43C0B20A4381009D
:103580006A503B493B4A09781278090612041143F4
:10359000394A401C1278C0B212021143374A1278DD
:1035A00011438200A950E179227A090612041143DD
:1035B000334A401C1288C0B211438200A950401CFB
:1035C000C6B231482F490068FCF7A5FFFDF713FA92
:1035D000B1006850A178A27A090412021143627AFC
:1035E000761CF0B211438200A9502849284A097874
:1035F0001288401C0904C0B211438200A950254919
:10360000254A09781278090612041143234A401CFE
:103610001278C0B212021143214A1278114382007B
:10362000A950401CC0B21F4982000988A950401C03
:10363000C2B2227109491C4800F0C4F82771FEBDCE
:103640004C4F52414D414320535441545553204512
:1036500052524F520A0D0000AC0100203C0C0020D9
:10366000C40000202A010020BC000020B10000207E
:103670002601002027010020280100202901002028
:103680002C010020000020415C000020B20000203E
:10369000BE000020B6000020B5000020B8000020C9
:1036A000B7000020C00000206000080810B5164CCC
:1036B0000022A11C08200FF073FE00210120E26807
:1036C0000FF06EFE21460022183110200FF068FE28
:1036D00021460022283110200FF062FE21460022F0
:1036E000383110200FF05CFE2146002210310820F6
:1036F0000FF056FE283C62790449054800F062F854
:103700000020607110BD00006C010020BC0C002086
:103710000400080870B50D4DEFF3108472B601F087
:10372000E5F80A4E7836284601F098F8002804D0CB
:1037300084F3108806A00BF099FC2D1DB542F2D33E
:1037400001F0A0F884F3108870BD00006000080844
:103750006572726F7220696E20454550524F4D2040
:103760004572617365206F7065726174696F6E0A6E
:103770000D00000070B50546EFF3108472B601F03D
:10378000B5F8284601F06AF8002804D084F31088C0
:1037900003A00BF06BFC01F075F884F3108870BD8A
:1037A0006572726F7220696E20454550524F4D20F0
:1037B0004572617365206F7065726174696F6E0A1E
:1037C0000D000000F7B5174600260546EFF31084FC
:1037D00072B601F08BF810E00198B100425829460A
:1037E000022001F059F8002805D084F3108806A0C3
:1037F0000BF03CFC03E02D1D761CBE42ECDB01F01F
:1038000041F884F31088FEBD6572726F7220696E94
:1038100020454550524F4D2057726974652065729E
:10382000726F720D0000000010B5012001F0ECF87D
:10383000022001F0E9F810BD10B5042001F0E4F811
:10384000082001F0E1F810BDF8B54B4C60694B4F12
:10385000C00601264A4D002818DA4A480078002898
:1038600010D0387800280DD02878072801D00928F2
:1038700008D14548102106600520000701F092F9A3
:10388000424908701020606101F0BAF8202001F070
:10389000BBF8402001F0B8F8802001F0B5F8FF2017
:1038A000013001F0B1F80120400201F0ADF8012033
:1038B000800201F0A9F80120C00201F0A5F8012062
:1038C000000301F0A1F80120400301F09DF86069B8
:1038D000400421D52E480178002918D038780028D6
:1038E00015D028782B4A062801D0092807D10229AB
:1038F00023D0032921D0062809D0092807D0012187
:1039000089032548166001F04DF92449087001200B
:103910008003606101F074F8606900042AD52048D2
:103920000078002821D0397800291ED02A781D4936
:10393000072A08D0092A0FD017E01B481660016833
:10394000491C0160E3E70E600121C903124801F040
:1039500029F91649087008E0022801D0032804D18B
:1039600013480E600168491C01600120C0036061BA
:1039700001F046F8F8BD000000040140A10000205D
:103980004B0100204E010020D000002097000020B5
:103990004C010020C80000200004005095000020C9
:1039A0004D010020CC000020D40000209600002013
:1039B000D8000020FEE7000010B5214A00219069E0
:1039C000C305204804D5416902231943416191157B
:1039D00093699B0505D54369012423434361630231
:1039E000194393695B0505D5436908242343436163
:1039F000E301194393691B0505D543690424234357
:103A000043616302194393699B0405D543691024FC
:103A1000234343616302194393699B0304D54469BB
:103A200020231C43446119439369DB0305D5436993
:103A3000402423434361A0020143916110BD000073
:103A400000200240E405002070B5054601F0B6F8FC
:103A50000646184C0AE0681C08D0002D04D001F07E
:103A6000ADF8801BA84201D9032070BDA069C00732
:103A7000F1D1A069800701D50220A061A069C0052D
:103A800011D4A06980050ED4A06940050BD4A069AB
:103A9000000508D4A069800405D4A069800302D47D
:103AA000A069C00303D5FFF787FF012070BD002088
:103AB00070BD00000020024001680248416040687B
:103AC000704700000000002070B594B0214D002424
:103AD00002AE2846FFF7F0FFA100641C2D1D7050B8
:103AE000112CF6DB00241C4D00940194A91C082025
:103AF000039B029A0FF069FA0498E8600899079806
:103B000001910090294618311020069B059A0FF06C
:103B10005CFA0B980C9901910090294628311020ED
:103B20000A9B099A0FF051FA10990F980191009091
:103B30002946383110200E9B0D9A0FF046FA29467F
:103B40000094019410310820129B119A0FF03DFA55
:103B500014B070BD009101086C01002010B586B052
:103B6000044614216846FCF773FB1748C26A022119
:103B70000A43C262C06A08400590480300900021D1
:103B80001248002C06D0012C0BD0022C0BD0032C99
:103B90000BD00DE001910291694600F041FF06B0A3
:103BA00010BD0B4A02E00B4A00E00B4A0192029161
:103BB000694600F035FF00220221072001F0C2FB18
:103BC000072001F0B5FBEAE70010024000040050B6
:103BD00000003110000021100000111010B586B057
:103BE000044614216846FCF733FB1748C26A0221D9
:103BF0000A43C262C06A0840059088030090002111
:103C00001248002C06D0012C0BD0022C0BD0032C18
:103C10000BD00DE001910291694600F001FF06B062
:103C200010BD0B4A02E00B4A00E00B4A01920291E0
:103C3000694600F0F5FE00220221072001F082FB18
:103C4000072001F075FBEAE7001002400004005075
:103C500000003110000021100000111010B586B0D6
:103C6000044614216846FCF7F3FA1848C16A012299
:103C70001143C162C06A00211040059010200090DD
:103C800005200007002C06D0012C0BD0022C0BD0F5
:103C9000032C0BD00DE001910291694600F0C0FEAB
:103CA00006B010BD0A4A02E00A4A00E00A4A019240
:103CB0000291694600F0B4FE00220221072001F0C3
:103CC00041FB072001F034FBEAE70000001002404E
:103CD00000003110000021100000111000B587B065
:103CE00014216846FCF7B4FA0A48C16A012211435C
:103CF000C162C06A11031040009105900320019039
:103D00000020029005206A46000703F01FFB07B061
:103D100000BD00000010024000B587B014216846C5
:103D2000FCF796FA0A48C16A01221143C162C06ACF
:103D30001103104000910590002001900220029094
:103D400005206A46000703F001FB07B000BD000034
:103D50000010024000B587B014216846FCF778FADD
:103D60000A48C26A02210A43C262C06A084005903A
:103D700088020090032001900020029005206946EF
:103D8000000700F04DFE07B000BD0000001002402B
:103D900000B587B014216846FCF75AFA0B48C26A8E
:103DA00002210A43C262C06A6A4608408902009141
:103DB000059000200190012002900320039005202F
:103DC000000703F0C3FA07B000BD00000010024076
:103DD00000B587B014216846FCF73AFA0948C16A71
:103DE00001221143C162C06A694610400590100368
:103DF00000900320019000200290034800F010FE84
:103E000007B000BD001002400004005000B587B0AC
:103E100014216846FCF71CFA0A48C16A01221143C2
:103E2000C162C06A11031040009105900020029009
:103E30000320019203906A46034803F087FA07B013
:103E400000BD000000100240000400500649800040
:103E500009580648091803D0C14203D00020704712
:103E6000012070470220704700440108702FFCFFBA
:103E700010B5094A0021CB00D458844207D89B18BA
:103E80009B68834203D9C8008018007910BD491C83
:103E9000C9B21529EFD3FEE7B83C010830B593B09D
:103EA00038216846FCF7D4F901250024059508203F
:103EB0000A940090684601F049FD002801D0FFF700
:103EC00079FD1B491B4812C004601B498460416096
:103ED000083802F033FD002801D0FFF76BFD1421F4
:103EE000144802F016FC0C2010900E9400220EA92B
:103EF0000F9511940F4802F07BFC002801D0FFF7CA
:103F000059FD00210B4802F047FD002801D0FFF7C2
:103F100051FD0A4CA0680228FCD10021054802F09E
:103F20005FFD044802F0F4FC606813B030BD00008F
:103F3000000801409C020020FFFF00000800002054
:103F4000884201D1C8B201E0401EC0B240B2704701
:103F500010B503F073FD0149486010BD5400002006
:103F600070B5002503F06AFD074C20606168884247
:103F700008D0401AFCF7F2FCA168FCF709FBFCF73B
:103F800021FD0546284670BD54000020F8B50546C1
:103F900004464035287D0026012808D001202875D8
:103FA000206881688907890F01290ED101E002206C
:103FB000F8BD0168C90708D0A06D20210843A0659D
:103FC0000126002028753046F8BDA16DFF22013280
:103FD000914302221143A165C1688907890F0091AD
:103FE000C16889088900C16020688168920711430F
:103FF000816000F0E3FD07460EE000F0DFFDC01B2E
:104000000A2809D9A06D0221884310210843A06520
:10401000002028750120F8BD206880680028ECDBAE
:104020002068C168009A1143C160A06D80088000BB
:10403000401CA065C5E70000F8B506460D464036B1
:10404000317D01290DD00121317501688A6852073F
:1040500009D5816D20221143816500203075012032
:10406000F8BD0220F8BD174B6A68D80547109A4280
:10407000154C8A6A2B6812D05B035B0B1A438A6269
:104080002968490305D5A1680143A1600A20FDF70D
:104090005DF92868800312D5A06838430EE05B0301
:1040A0005B0B9A438A622968490302D5A168814360
:1040B000A1602868800302D5A068B843A0600020F2
:1040C0003075F8BD01100000002701400068006C49
:1040D0007047000070B5040006D0A06D264600258C
:1040E0004036002802D006E0012070BDE565357538
:1040F000204600F0D1F8A06DC00603D4216888687E
:10410000400705D5A06D10210843A0653575EBE784
:10411000A06DFF220132904302221043A0658868FF
:104120008207920F5A48012A02D10A68D2072BD17E
:10413000032362689B079A4205D05B429A4202D0F1
:104140005B009A4209D10A69920092080A612168CB
:104150000A6963681A430A610CE00A6992009208CE
:104160000A6181680F2292049143816081686268CC
:10417000114381602168CA6818239A43CA60216884
:10418000CA68A3681A43CA60816801225206914333
:1041900081608168228F52061143816020688168A6
:1041A000C90004D48168012212071143816020688C
:1041B000C168384A1140C1602169E068022923D0F2
:1041C00000210843216A226B49035200114308432E
:1041D000616B0843A16989030843E169C903084386
:1041E0002168CA681043C860A06A0146FF39C23915
:1041F00005D0E16A08432168CA681043C860606A54
:104200000121012802D00BE00421DAE7206A00280E
:1042100023D0A06D20221043A065E06D0843E06527
:10422000206C012820681FD00169C90703D00169EB
:1042300049084900016120684169C908C900416114
:1042400020684169E26B11434161E565A06D80081A
:104250008000401CA065002070BD2068C26801235A
:104260001B041A43C260DBE70269FF239B009A43E9
:10427000026120680269636CE66C1A43A36C3343E5
:104280001A430261206802690A430261D3E7000011
:10429000002701401902FEFF7047F8B50446406947
:1042A000254640350E4608280BD02068C068C00758
:1042B00009D0A06D20210843A065002028750120A9
:1042C000F8BD082700E00C2700F078FC009011E012
:1042D000701C0FD0002E05D000F070FC0099401A21
:1042E000B04207D9A06D04210843A06500202875BD
:1042F0000320F8BD206800683842E9D0A06D012194
:1043000049020843A0652068C16809058A0F0C218D
:10431000002A1AD1226A002A17D10268120714D57E
:10432000826853070122002B08DB43688B434360FC
:10433000A06D130298431043A06506E0A06D2023F2
:104340001843A065E06D1043E065A069002801D125
:10435000206801600020F8BD70B504462168002087
:104360008968490721D425464035297D01291CD07B
:1043700001212975E169012904D02046FDF714F8CF
:10438000002811D1A16D0A4A1140FF2201321143C8
:10439000A1650021E165297522681C211160216851
:1043A0008A6804231A438A6070BD022070BD000031
:1043B000FEF1FFFF0248416849084900416070472B
:1043C000005801400248416804229143416070470F
:1043D0000058014002484168022291434160704701
:1043E0000058014070B5002402462032517902295C
:1043F00003D00421C16301243CE001680B680E2551
:10440000AB430B6001680B685B085B000B601A4BE9
:104410000168994201D1012121E0174B14339942DF
:1044200001D110211BE0144B2833994201D1891589
:1044300015E0114B3C33994201D189140FE00E4B2A
:104440005033994202D10121090408E00A4B643338
:10445000994202D10121090501E001210906064B1B
:10446000083B59600121517100211171816B0029B4
:1044700000D08847204670BD08000240F8B50446C9
:104480009D4801689C4A9C4E9B4F0832206813044B
:104490001C363037904201D108221EE0B04201D1D3
:1044A00080221AE0B84202D10122D20215E0924ADB
:1044B0004432904202D10122D2030EE08E4A583299
:1044C000904201D11A4608E08B4A6C32904202D1E8
:1044D0000122D20501E00122D206254611402035F5
:1044E00000293BD00168090738D5016808229143AB
:1044F0000160814920680831884201D108201EE00E
:10450000B04201D180201AE0B84202D10120C0029D
:1045100015E079494431884202D10120C0030EE000
:1045200075495831884201D1184608E072496C310A
:10453000884202D10120C00501E00120C0066E4979
:104540004860E06B01210843E063042068710020AB
:104550002871616B002901D02046884766480168B0
:10456000654A206808321315904201D104221EE0EA
:10457000B04201D140221AE0B84201D11A4616E0F9
:104580005D4A4432904202D1012292030FE05A4A1E
:104590005832904202D10122920408E0564A6C320D
:1045A000904202D10122920501E0012292061142BD
:1045B00038D00168490735D50168890603D40268F7
:1045C00004218A4302604C4920680831884201D1A5
:1045D00004201EE0B04201D140201AE0B84201D1CF
:1045E000184616E044494431884202D10120800334
:1045F0000FE041495831884202D10120800408E08F
:104600003D496C31884202D10120800501E0012042
:1046100080063949486005206871216B002901D066
:104620002046884734480168334A206808325315C9
:10463000904201D102221EE0B04201D120221AE0B4
:10464000B84201D11A4616E02B4A4432904202D1B8
:10465000012252030FE0284A5832904202D101222F
:10466000520408E0244A6C32904202D101225205E1
:1046700001E00122520611423CD00168890739D578
:104680000168890603D401680222914301601A4936
:1046900020680831884201D102201EE0B04201D1D9
:1046A00020201AE0B84201D1184616E012494431E0
:1046B000884202D1012040030FE00F49583188425F
:1046C00002D10120400408E00B496C31884202D13C
:1046D0000120400501E00120400607494860E06BE9
:1046E000E0630120687100202871E16A002901D08F
:1046F00020468847F8BD00000000024070B5002841
:1047000005D0034620335979002902D003E0012067
:1047100070BD00211971022159710468226837495E
:10472000C5680A40816846692943056935432943BC
:1047300085692943C5692943056A294311432160D5
:104740002F492F4C02687831A24206D18A6A120999
:1047500012018A628A6A406849E0294C1434A242F4
:1047600007D18A6AF024A2438A628A6A40680001FB
:104770003DE0234C2834A24208D18A6A0F24240247
:10478000A2438A628A6A4068000230E01C4C3C34D2
:10479000A24208D18A6A0F242403A2438A628A6A49
:1047A0004068000323E0164C5034A24208D18A6AC4
:1047B0000F242404A2438A628A6A8088000416E0D7
:1047C0000F4C6434A24208D18A6A0F242405A24304
:1047D0008A628A6A8088000509E08A4209D18A6A69
:1047E0000F242406A2438A628A6A007900060243E3
:1047F0008A6201205871002070BD00000FC0FFFFC9
:1048000008000240F8B5044620300579012D1ED07D
:10481000012505710226467120680768AF430760CD
:104820002046FEF70DF920680168314301602068D9
:1048300001680422114301602068016808221143C5
:10484000016020680168294301600020F8BD022052
:10485000F8BD01B50098FEF700FC08BD70B5074D26
:1048600004462846FFF7F0F8002805D104494861BE
:1048700020602846FFF7E8F870BD000050C3000034
:10488000E4050020034841680122114341600020F3
:104890007047000000200240F8B5124D0746287C02
:1048A00014460E46012807D0012028740E48FFF751
:1048B000CBF8002802D00CE00220F8BD002169618D
:1048C000022F09D0012F09D0002F09D00648FFF789
:1048D000BBF800212974F8BD3460FAE73480F8E7AA
:1048E0003470F6E7E405002050C300000548416835
:1048F000C90705D00449C1600449C1600020704760
:104900000120704700200240EFCDAB89050403026F
:10491000F0B5002362E001249C4022460A405CD0AE
:1049200006685F000325BD402E43AC460660DD08E7
:10493000AD002D182E6AAE465D07EF0E0F25BD4067
:10494000AE4375462E6286686546AE43866045680E
:10495000A5434560C4686546AC43C4609D08214CCE
:10496000AD002D19AF689C07260F0F24B440A44654
:104970003C4005273F07B84201D1002719E01A4FF4
:10498000B84201D1012714E0184FB84201D10227E3
:104990000FE0174FB84201D103270AE0154FB84284
:1049A00001D1042705E0144FB84201D1052700E0EA
:1049B0000627B740A74210D1AE686446A643AE6052
:1049C0000E4C256895432560656895436560A5682C
:1049D0009543A560E5689543E5605B1C0A46DA40AF
:1049E00099D1F0BD000001400004005000080050C3
:1049F000000C005000100050001C0050000401404A
:104A000010B502F0CDFC10BD10B504494A69024250
:104A100002D04861FFF7F4FF10BD00000004014020
:104A2000F8B500230124A7E027469F403A4070D004
:104A30004D68022D01D0122D14D1DD08AD002D18C6
:104A400000952D6A5E07AC46F50E0F26AE46AE40C9
:104A50006546B543AC460E697546AE4065462E4385
:104A6000009D2E624D68012D05D0022D03D0112D21
:104A700001D0122D16D185680326AC465D00AE46E6
:104A8000AE406546B543AC46CE687546AE40654619
:104A90002E43866046680D79BE43ED06ED0F9D40BE
:104AA0003543456006685F000325BD40AE46AE4312
:104AB0000D79B446AE07B60FBE4065462E4306607C
:104AC000C6687546AE438D68BD403543C5604D68C8
:104AD000ED0050D52B4D6E6B26436E639E082A4D1C
:104AE000B6007519AC46AD689E07360F0F27B74064
:104AF000BD4305273F07B84201D100271AE0234FE5
:104B0000B84201D1012715E0214FB84202D1022756
:104B100010E030E01F4FB84201D103270AE01E4FDA
:104B2000B84201D1042705E01C4FB84201D1052746
:104B300000E00627B7402F436546AF60184D2E684A
:104B40004F689643FF0300D516432E606E684F688A
:104B50009643BF0300D516436E60AE684F68964318
:104B6000FF0200D51643AE60EE684F689643BF0261
:104B700000D51643EE605B1C0A681546DD4000D088
:104B800052E7F8BD00100240000001400004005050
:104B900000080050000C005000100050001C005095
:104BA000000401400069084000D001207047002A3D
:104BB00001D0816170478162704700000148006840
:104BC000704700008000002070B5024640325378E4
:104BD000202B1CD11378012B19D00123137024240E
:104BE0005470046825689D432560046825681E0389
:104BF000B5432560046825680D4325600068016899
:104C000019430160202050700020107070BD0220F8
:104C100070BD406C7047000070B5040006D025469A
:104C2000403568780026002802D005E0012070BDDC
:104C30002E70204600F0D0FA2420687020680168A9
:104C40004908490001600F2160680906884321680E
:104C5000086121688A680120C00382438A60E16894
:104C60000129A16808D02122920211432268916093
:104C7000E168022902D005E00143F7E7012122683B
:104C8000C902516021684A680F4B1A434A60216883
:104C9000CA688243CA60616920690843A169090240
:104CA00008432168C860216AE069084321680860F8
:104CB0002068016801221143016066642020687049
:104CC0002663AE70002070BD00800002FFB505466F
:104CD00004464035687881B020287ED128780128A4
:104CE0007BD001202870FFF769FF07460122009062
:104CF0001923D103204602F0DFFF00283FD12220F4
:104D000068701020A870002666640398606204989A
:104D100060856663618D09208002FF2903D9FF2227
:104D20002285009034E0618D2185009036E0204698
:104D3000029902F0AFFF36E002F0E2FF002803D054
:104D4000606C042847D01AE02068416A606A421CFF
:104D500062620170208D401E80B22085618D491EE7
:104D6000618500281FD1608D00281CD0009700228B
:104D7000802120460A9B02F09FFF002802D00320DA
:104D800005B0F0BD608DFF2805D9FF222285009671
:104D900001231B06CBE7608D20850096208D012323
:104DA000C2B25B06C3E7608D0A9900283A462046E6
:104DB000C2D102F0E1FF0028C2D121682020C861E1
:104DC00021684A68064B1A404A606870AE702E70BF
:104DD0000020D5E701E00120D2E70220D0E7000063
:104DE00000E800FEFFB5054604464035687881B00E
:104DF00020287ED1287801287BD001202870FFF759
:104E0000DDFE0746012200901923D103204602F05F
:104E100053FF00283FD1212068701020A870002681
:104E2000666403986062049860856663618D012002
:104E30004003FF2903D9FF222285009034E0618DD1
:104E40002185009036E02046029902F023FF36E0EB
:104E500002F0B9FF002803D0606C042847D01AE0A4
:104E6000606A411C6162017820688162608D401E29
:104E70006085208D401E0004000C20851FD1608DB0
:104E800000281CD000970022802120460A9B02F0B7
:104E900013FF002802D0032005B0F0BD608DFF286D
:104EA00005D9FF222285009601231B06CBE7608DE2
:104EB00020850096208D0123C2B25B06C3E7608D7A
:104EC0000A9900283A462046C2D102F055FF002830
:104ED000C2D121682020C86121684A68064B1A4067
:104EE0004A606870AE702E700020D5E701E00120A6
:104EF000D2E70220D0E7000000E800FEFFB505463B
:104F000004464035687883B0202873D10C98002877
:104F100071D00D9800286ED0287801286AD0012021
:104F20002870FFF74BFE0746012200901923D1039A
:104F3000204602F0C1FE002876D122206870402071
:104F4000A870002666640C9860620D9860856663A0
:104F50000E980090019704A90EC9204602F030FE79
:104F6000002804D0606C2E70042860D05CE0618D55
:104F700009208002FF2905D9FF22228501231B0673
:104F8000009006E0618D21850090208D0123C2B242
:104F90005B062046049902F07DFE00970022042162
:104FA00020460E9B02F088FE00283DD12068416A11
:104FB000606A421C62620170208D401E81B22185B0
:104FC000608D401E6085002921D1608D00281ED093
:104FD00000970022802120460E9B02F06DFE0028E3
:104FE00022D1608DFF2807D9FF22228501231B06CD
:104FF000009608E02AE01AE0608D20850096208D5A
:105000000123C2B25B062046049902F043FE608D84
:105010000028C2D13A4620460E9902F0ADFE002883
:1050200007D0606C042802D0032007B0F0BD012037
:10503000FBE721682020C86121684A68044B1A40B8
:105040004A606870AE702E700020EEE70220ECE738
:1050500000E800FEFFB5054604464035687883B099
:10506000202876D10C98002874D00D98002871D093
:10507000287801286DD001202870FFF79FFD074692
:10508000012200901923D103204602F015FE0028CA
:1050900053D1212068704020A870002666640C98C7
:1050A00060620D98608566630E980090019704A970
:1050B0000EC9204602F0B9FD002804D0606C2E70A5
:1050C00004286AD039E0608DFF2805D9FF222285A7
:1050D00001231B06009606E0608D20850096208D3A
:1050E0000123C2B25B062046049902F0D3FD3A4682
:1050F00020460E9902F067FE002803D0606C042859
:105100004BD01AE0606A411C6162216800788862B5
:10511000608D401E6085208D401E0004000C20859F
:1051200024D1608D002821D00097002280212046C4
:105130000E9B02F0C1FD002802D0032007B0F0BD95
:10514000608DFF2807D9FF22228501231B060096C8
:1051500008E024E021E0608D20850096208D012369
:10516000C2B25B062046049902F094FD608D0028CF
:10517000BDD13A4620460E9902F0FEFD0028BDD171
:1051800020682021C16120684268064B1A404260B5
:105190006970AE702E700020D0E70120CEE70220AB
:1051A000CCE7000000E800FE10B50948826A012142
:1051B00049050A438262826A8A438262054C402121
:1051C0002046FFF7A5FB80212046FFF7A1FB10BD7D
:1051D000001002400004005030B58FB00820059048
:1051E00040020A9005A800F0DBF91548C26A0221C6
:1051F0000A43C262C26A0A400E92C26A0A43C2628B
:10520000C26A0A400E92816B0122520511438163EA
:105210004020009012200190002002900320094DB0
:1052200001240390694604942846FFF7F9FB802087
:105230000090694604942846FFF7F2FB0FB030BD9A
:10524000001002400004005070B504000FD0216827
:105250001348086021681348086003CC4160206847
:10526000083C21688860FFF7A9FC054608E001209A
:1052700070BDFFF7A3FC401B302801D9032070BD8F
:105280002068C0680028F4D120680269E1688A4279
:1052900001D0016101E004490160002070BD0000FF
:1052A000CCCC000055550000AAAA000000680249B5
:1052B0000160002070470000AAAA000002480168AF
:1052C000491C0160704700008000002010B50648AE
:1052D0000168022211430160032000F007F800F08A
:1052E00007F8002010BD0000002002400020704799
:1052F00010B50848816B02041143816300F036F851
:1053000000F02CF80448016808221143016000F005
:105310001DF810BD0010024000200240C106C90E59
:1053200001208840014908607047000080E100E0EA
:10533000C106C90E0120884001490860704700007D
:1053400000E100E010B504F087FB10BD02480168E1
:105350000215114301607047007000400248016867
:105360004215114301607047007000400248016817
:10537000102291430160704700700040094B1A6889
:105380009208920002431A600748026904239A4374
:105390000261012903D040BF20BF20BF704730BF4A
:1053A000704700000070004000ED00E00A4B1A68F2
:1053B0009208920002431A600848036904221343CA
:1053C0000361012906D040BF20BF20BF016991437E
:1053D0000161704730BFF9E70070004000ED00E068
:1053E000F8B56649074601250020ED03624B634A84
:1053F0004031102F6FD011DC012F77D0022F6CD0ED
:10540000042F6BD0082F24D1C96803242403214022
:105410007BD0BD026C10A9427CD0A0E00326584C82
:105420003604202F0BD0402F35D0FF3F012F10D155
:10543000C968314069D07C04A1426BD096E00B6909
:105440000969012731403F04B94203D1990559E068
:105450002846F8BD01256D04A94203D19907F8D566
:105460004848F8BDB142FCD111688903F9D51168EB
:1054700003200005014001200005091A09D0091A7E
:1054800005D0814201D14048F8BD2046F8BD3F48D3
:10549000F8BD3F48F8BDC9680125AD06294006D0D2
:1054A000A942F7D191688907F4D53A48F8BD116847
:1054B0008901FBD5D068D1688002374D000F2D5C83
:1054C0000802810FD068491CC0030AD41068C006C6
:1054D00005D5204606E045E008E023E030E0184628
:1054E00000E02E486843FAF703FEF8BDCC68A40735
:1054F000A40F0CD0022C0DD0012C10D0032CF4D111
:10550000096989050029A3DBF8BD16E002E000F077
:10551000D1F9F9E711684907F6D51846F4E700F024
:10552000D9F9F1E7CC680C26344006D0082CF1D02C
:10553000042CF4D00C2CE3D0E6E700F0ABF9E3E761
:10554000CC680326B6023440F7D00127FF02BC42E4
:10555000E0D07A109442E2D0B442D1D0D4E7A14254
:10556000DDD0D1E7916B4902E7D4CDE701221204E7
:105570009142D4D0C8E700000024F400001002409B
:1055800000093D008890000020A1070040420F0064
:1055900080841E00006CDC02E03D010800127A00ED
:1055A000F8B5044600785E4D800672D55C4E002743
:1055B000403EB06BC00004D4B06BA9050843B06393
:1055C000012758480168C90511D4016882151143A3
:1055D0000160FFF7F3FA009005E0FFF7EFFA00999A
:1055E000401A642837D84F480068C005F5D532689E
:1055F0000321090560680A400140914208D08103F7
:10560000890F032904D13168890301D50120F8BD30
:105610002A69032109040A4022D0084090421FD081
:10562000207880061CD528692A6988430121C9048D
:105630000A432A612A698A432A612861C0050FD575
:10564000FFF7BCFA009008E0FFF7B8FA0099411A9A
:105650003548814201D90320F8BD28698005F3D57A
:1056600061688803800F032805D1326800058243F2
:1056700001400A4332602869032261681204114024
:1056800008432861002F04D0B06B0121090788432B
:10569000B0632078C00705D0E868A1688008800062
:1056A0000843E8602078800705D5E8680C21884326
:1056B000E1680843E8602078400706D5E8680321E0
:1056C0008902884321690843E8602078000706D5ED
:1056D000E86803210903884361690843E86020887A
:1056E000C00506D5E868032109048843A169084379
:1056F000E8602078400606D5E868012189068843DD
:10570000216A0843E8602078000606D5E86803218E
:1057100089048843E1690843E8600020F8BD00007F
:10572000401002400070004088130000F8B50546A4
:1057300053480E460068C007C00FB0420AD2504816
:10574000016849084900314301600068C007C00F83
:10575000B0426FD128784B4C800705D5E068F02126
:105760008843A9680843E0602878C00752D0686879
:10577000022817D0032818D02168012818D08905DD
:10578000002957DAE168890889000143E160FFF7E1
:1057900015FA69680746022912D003291CD001298D
:1057A00026D033E021688903EAE721688901E7E729
:1057B0004907E5E7FFF702FAC11B3348814223D8C6
:1057C000E0680007800F0228F4D123E0FFF7F6F924
:1057D000C11B2D48814217D8E0680007800F0328BD
:1057E000F4D117E0FFF7EAF9C11B274881420BD833
:1057F000E0680007800F0128F4D10BE0FFF7DEF925
:10580000C11B2148814201D90320F8BDE06800078F
:10581000800FF3D11A480168C907C90FB1420BD9EB
:10582000016849084900314301600068C007C00FA2
:10583000B04201D00120F8BD2878400706D5E068C5
:10584000072109028843E9680843E06028780007D7
:1058500007D5E0680721C90288432969C9000843C0
:10586000E06000F037F8E168084A0906090F515C6A
:10587000C840074908600320FFF738FD0020F8BD45
:10588000002002400010024088130000D03D0108B3
:105890007C000020044805490068C968044A49059D
:1058A000490F515CC84070477C0000200010024046
:1058B000E93D0108044805490068C968044A8904AB
:1058C000490F515CC84070477C0000200010024026
:1058D000E93D010810B5184AD1680C200840042899
:1058E0000BD0082810D00C2810D050680004410FAD
:1058F0000120C003491C884010BD1068C00601D5B6
:105900000E4810BD0E4810BD0E4810BD88020E4B4B
:10591000000F185C0902D368890F491CDB0301D50D
:10592000084A05E01268D20601D5044A00E0044A9C
:105930005043FAF7DDFB10BD0010024000093D00A6
:105940000024F40000127A00E03D0108F8B5044696
:105950000078FF4DC0074CD0E8680007800F022890
:1059600007D0E8680007800F032809D1E868C00362
:1059700006D5286880033CD56068002875D038E0DB
:10598000012062680004824203D129680143296032
:1059900011E0052301211B0489049A422A6802D1DF
:1059A0000A432A60F1E782432A602A680240009293
:1059B000286888432860606800280DD0FFF7FEF84B
:1059C0000646E44F04E0FFF7F9F8801BB8427DD8A3
:1059D00028688003F7D50CE0FFF7F0F80646DD4FA6
:1059E00004E0FFF7EBF8801BB842F0D8286880038A
:1059F000F7D42078800741D5E8681F270007800F7B
:105A00003F02012807D0E8680007800F032809D16A
:105A1000E868C00306D42868400717D5E068012865
:105A200023D113E0E068002817D0296809229143A8
:105A300001432960FFF7C2F8064604E0FFF7BEF80D
:105A4000801B0228C3D828684007F7D568682169F9
:105A5000B84309020843686010E028684008400025
:105A60002860FFF7ABF8064605E090E0FFF7A6F8E0
:105A7000801B0228ABD828684007F7D42078C006DE
:105A800076D5E868B44E0007800F0BD0E069002897
:105A90005DD02868FF21013108432860FFF78EF8A8
:105AA000074644E02868800502D5E06900286ED0EA
:105AB000606A69683140884212D905F067FB0028A6
:105AC000AED16868616AB043084300E0E4E0686012
:105AD0006868218C0002000A0906084368600FE02C
